{
  "_format": "hh-sol-artifact-1",
  "contractName": "Marketplace",
  "sourceName": "contracts/Marketplace.sol",
  "abi": [
    {
      "inputs": [],
      "stateMutability": "nonpayable",
      "type": "constructor"
    },
    {
      "anonymous": false,
      "inputs": [
        {
          "indexed": true,
          "internalType": "address",
          "name": "owner",
          "type": "address"
        },
        {
          "indexed": true,
          "internalType": "address",
          "name": "approved",
          "type": "address"
        },
        {
          "indexed": true,
          "internalType": "uint256",
          "name": "tokenId",
          "type": "uint256"
        }
      ],
      "name": "Approval",
      "type": "event"
    },
    {
      "anonymous": false,
      "inputs": [
        {
          "indexed": true,
          "internalType": "address",
          "name": "owner",
          "type": "address"
        },
        {
          "indexed": true,
          "internalType": "address",
          "name": "operator",
          "type": "address"
        },
        {
          "indexed": false,
          "internalType": "bool",
          "name": "approved",
          "type": "bool"
        }
      ],
      "name": "ApprovalForAll",
      "type": "event"
    },
    {
      "anonymous": false,
      "inputs": [
        {
          "indexed": true,
          "internalType": "uint256",
          "name": "tokenId",
          "type": "uint256"
        },
        {
          "indexed": false,
          "internalType": "address",
          "name": "seller",
          "type": "address"
        },
        {
          "indexed": false,
          "internalType": "address",
          "name": "owner",
          "type": "address"
        },
        {
          "indexed": false,
          "internalType": "uint256",
          "name": "price",
          "type": "uint256"
        },
        {
          "indexed": false,
          "internalType": "bool",
          "name": "rented",
          "type": "bool"
        }
      ],
      "name": "MarketItemCreated",
      "type": "event"
    },
    {
      "anonymous": false,
      "inputs": [
        {
          "indexed": true,
          "internalType": "address",
          "name": "from",
          "type": "address"
        },
        {
          "indexed": true,
          "internalType": "address",
          "name": "to",
          "type": "address"
        },
        {
          "indexed": true,
          "internalType": "uint256",
          "name": "tokenId",
          "type": "uint256"
        }
      ],
      "name": "Transfer",
      "type": "event"
    },
    {
      "inputs": [
        {
          "internalType": "address",
          "name": "to",
          "type": "address"
        },
        {
          "internalType": "uint256",
          "name": "tokenId",
          "type": "uint256"
        }
      ],
      "name": "approve",
      "outputs": [],
      "stateMutability": "nonpayable",
      "type": "function"
    },
    {
      "inputs": [
        {
          "internalType": "address",
          "name": "owner",
          "type": "address"
        }
      ],
      "name": "balanceOf",
      "outputs": [
        {
          "internalType": "uint256",
          "name": "",
          "type": "uint256"
        }
      ],
      "stateMutability": "view",
      "type": "function"
    },
    {
      "inputs": [
        {
          "internalType": "string",
          "name": "tokenURI",
          "type": "string"
        },
        {
          "internalType": "uint256",
          "name": "price",
          "type": "uint256"
        }
      ],
      "name": "createToken",
      "outputs": [
        {
          "internalType": "uint256",
          "name": "",
          "type": "uint256"
        }
      ],
      "stateMutability": "payable",
      "type": "function"
    },
    {
      "inputs": [
        {
          "internalType": "uint256",
          "name": "tokenId",
          "type": "uint256"
        }
      ],
      "name": "executeMarketRent",
      "outputs": [],
      "stateMutability": "payable",
      "type": "function"
    },
    {
      "inputs": [],
      "name": "fetchItemsListed",
      "outputs": [
        {
          "components": [
            {
              "internalType": "uint256",
              "name": "tokenId",
              "type": "uint256"
            },
            {
              "internalType": "address payable",
              "name": "renter",
              "type": "address"
            },
            {
              "internalType": "address payable",
              "name": "owner",
              "type": "address"
            },
            {
              "internalType": "uint256",
              "name": "price",
              "type": "uint256"
            },
            {
              "internalType": "bool",
              "name": "rented",
              "type": "bool"
            }
          ],
          "internalType": "struct Marketplace.MarketItem[]",
          "name": "",
          "type": "tuple[]"
        }
      ],
      "stateMutability": "view",
      "type": "function"
    },
    {
      "inputs": [],
      "name": "fetchMarketItems",
      "outputs": [
        {
          "components": [
            {
              "internalType": "uint256",
              "name": "tokenId",
              "type": "uint256"
            },
            {
              "internalType": "address payable",
              "name": "renter",
              "type": "address"
            },
            {
              "internalType": "address payable",
              "name": "owner",
              "type": "address"
            },
            {
              "internalType": "uint256",
              "name": "price",
              "type": "uint256"
            },
            {
              "internalType": "bool",
              "name": "rented",
              "type": "bool"
            }
          ],
          "internalType": "struct Marketplace.MarketItem[]",
          "name": "",
          "type": "tuple[]"
        }
      ],
      "stateMutability": "view",
      "type": "function"
    },
    {
      "inputs": [],
      "name": "fetchMyRented",
      "outputs": [
        {
          "components": [
            {
              "internalType": "uint256",
              "name": "tokenId",
              "type": "uint256"
            },
            {
              "internalType": "address payable",
              "name": "renter",
              "type": "address"
            },
            {
              "internalType": "address payable",
              "name": "owner",
              "type": "address"
            },
            {
              "internalType": "uint256",
              "name": "price",
              "type": "uint256"
            },
            {
              "internalType": "bool",
              "name": "rented",
              "type": "bool"
            }
          ],
          "internalType": "struct Marketplace.MarketItem[]",
          "name": "",
          "type": "tuple[]"
        }
      ],
      "stateMutability": "view",
      "type": "function"
    },
    {
      "inputs": [
        {
          "internalType": "uint256",
          "name": "tokenId",
          "type": "uint256"
        }
      ],
      "name": "getApproved",
      "outputs": [
        {
          "internalType": "address",
          "name": "",
          "type": "address"
        }
      ],
      "stateMutability": "view",
      "type": "function"
    },
    {
      "inputs": [
        {
          "internalType": "address",
          "name": "owner",
          "type": "address"
        },
        {
          "internalType": "address",
          "name": "operator",
          "type": "address"
        }
      ],
      "name": "isApprovedForAll",
      "outputs": [
        {
          "internalType": "bool",
          "name": "",
          "type": "bool"
        }
      ],
      "stateMutability": "view",
      "type": "function"
    },
    {
      "inputs": [],
      "name": "name",
      "outputs": [
        {
          "internalType": "string",
          "name": "",
          "type": "string"
        }
      ],
      "stateMutability": "view",
      "type": "function"
    },
    {
      "inputs": [
        {
          "internalType": "uint256",
          "name": "tokenId",
          "type": "uint256"
        }
      ],
      "name": "ownerOf",
      "outputs": [
        {
          "internalType": "address",
          "name": "",
          "type": "address"
        }
      ],
      "stateMutability": "view",
      "type": "function"
    },
    {
      "inputs": [
        {
          "internalType": "address",
          "name": "from",
          "type": "address"
        },
        {
          "internalType": "address",
          "name": "to",
          "type": "address"
        },
        {
          "internalType": "uint256",
          "name": "tokenId",
          "type": "uint256"
        }
      ],
      "name": "safeTransferFrom",
      "outputs": [],
      "stateMutability": "nonpayable",
      "type": "function"
    },
    {
      "inputs": [
        {
          "internalType": "address",
          "name": "from",
          "type": "address"
        },
        {
          "internalType": "address",
          "name": "to",
          "type": "address"
        },
        {
          "internalType": "uint256",
          "name": "tokenId",
          "type": "uint256"
        },
        {
          "internalType": "bytes",
          "name": "_data",
          "type": "bytes"
        }
      ],
      "name": "safeTransferFrom",
      "outputs": [],
      "stateMutability": "nonpayable",
      "type": "function"
    },
    {
      "inputs": [
        {
          "internalType": "address",
          "name": "operator",
          "type": "address"
        },
        {
          "internalType": "bool",
          "name": "approved",
          "type": "bool"
        }
      ],
      "name": "setApprovalForAll",
      "outputs": [],
      "stateMutability": "nonpayable",
      "type": "function"
    },
    {
      "inputs": [
        {
          "internalType": "bytes4",
          "name": "interfaceId",
          "type": "bytes4"
        }
      ],
      "name": "supportsInterface",
      "outputs": [
        {
          "internalType": "bool",
          "name": "",
          "type": "bool"
        }
      ],
      "stateMutability": "view",
      "type": "function"
    },
    {
      "inputs": [],
      "name": "symbol",
      "outputs": [
        {
          "internalType": "string",
          "name": "",
          "type": "string"
        }
      ],
      "stateMutability": "view",
      "type": "function"
    },
    {
      "inputs": [
        {
          "internalType": "uint256",
          "name": "tokenId",
          "type": "uint256"
        }
      ],
      "name": "tokenURI",
      "outputs": [
        {
          "internalType": "string",
          "name": "",
          "type": "string"
        }
      ],
      "stateMutability": "view",
      "type": "function"
    },
    {
      "inputs": [
        {
          "internalType": "address",
          "name": "from",
          "type": "address"
        },
        {
          "internalType": "address",
          "name": "to",
          "type": "address"
        },
        {
          "internalType": "uint256",
          "name": "tokenId",
          "type": "uint256"
        }
      ],
      "name": "transferFrom",
      "outputs": [],
      "stateMutability": "nonpayable",
      "type": "function"
    }
  ],
  "bytecode": "0x60806040523480156200001157600080fd5b50604080518082018252601081526f4d657461766572736520546f6b656e7360801b6020808301918252835180850190945260048452631351551560e21b908401528151919291620000669160009162000097565b5080516200007c90600190602084019062000097565b5050600980546001600160a01b03191633179055506200017a565b828054620000a5906200013d565b90600052602060002090601f016020900481019282620000c9576000855562000114565b82601f10620000e457805160ff191683800117855562000114565b8280016001018555821562000114579182015b8281111562000114578251825591602001919060010190620000f7565b506200012292915062000126565b5090565b5b8082111562000122576000815560010162000127565b600181811c908216806200015257607f821691505b602082108114156200017457634e487b7160e01b600052602260045260246000fd5b50919050565b612083806200018a6000396000f3fe6080604052600436106101095760003560e01c806370a0823111610095578063b88d4fde11610064578063b88d4fde146102cc578063c12ea9c4146102ec578063c87b56dd14610301578063e6bbfd2914610321578063e985e9c51461033457600080fd5b806370a082311461025657806372b3b6201461028457806395d89b4114610297578063a22cb465146102ac57600080fd5b80630f08efe0116100dc5780630f08efe0146101bf57806323b872dd146101e157806342842e0e1461020157806345f8fa80146102215780636352211e1461023657600080fd5b806301ffc9a71461010e57806306fdde0314610143578063081812fc14610165578063095ea7b31461019d575b600080fd5b34801561011a57600080fd5b5061012e610129366004611ca9565b61037d565b60405190151581526020015b60405180910390f35b34801561014f57600080fd5b506101586103cf565b60405161013a9190611e63565b34801561017157600080fd5b50610185610180366004611d37565b610461565b6040516001600160a01b03909116815260200161013a565b3480156101a957600080fd5b506101bd6101b8366004611c80565b6104ee565b005b3480156101cb57600080fd5b506101d4610604565b60405161013a9190611de7565b3480156101ed57600080fd5b506101bd6101fc366004611b92565b6107b8565b34801561020d57600080fd5b506101bd61021c366004611b92565b6107e9565b34801561022d57600080fd5b506101d4610804565b34801561024257600080fd5b50610185610251366004611d37565b6109f6565b34801561026257600080fd5b50610276610271366004611b46565b610a6d565b60405190815260200161013a565b610276610292366004611ce1565b610af4565b3480156102a357600080fd5b50610158610b36565b3480156102b857600080fd5b506101bd6102c7366004611c46565b610b45565b3480156102d857600080fd5b506101bd6102e7366004611bcd565b610b54565b3480156102f857600080fd5b506101d4610b8c565b34801561030d57600080fd5b5061015861031c366004611d37565b610d7e565b6101bd61032f366004611d37565b610ef5565b34801561034057600080fd5b5061012e61034f366004611b60565b6001600160a01b03918216600090815260056020908152604080832093909416825291909152205460ff1690565b60006001600160e01b031982166380ac58cd60e01b14806103ae57506001600160e01b03198216635b5e139f60e01b145b806103c957506301ffc9a760e01b6001600160e01b03198316145b92915050565b6060600080546103de90611f88565b80601f016020809104026020016040519081016040528092919081815260200182805461040a90611f88565b80156104575780601f1061042c57610100808354040283529160200191610457565b820191906000526020600020905b81548152906001019060200180831161043a57829003601f168201915b5050505050905090565b600061046c8261101b565b6104d25760405162461bcd60e51b815260206004820152602c60248201527f4552433732313a20617070726f76656420717565727920666f72206e6f6e657860448201526b34b9ba32b73a103a37b5b2b760a11b60648201526084015b60405180910390fd5b506000908152600460205260409020546001600160a01b031690565b60006104f9826109f6565b9050806001600160a01b0316836001600160a01b031614156105675760405162461bcd60e51b815260206004820152602160248201527f4552433732313a20617070726f76616c20746f2063757272656e74206f776e656044820152603960f91b60648201526084016104c9565b336001600160a01b03821614806105835750610583813361034f565b6105f55760405162461bcd60e51b815260206004820152603860248201527f4552433732313a20617070726f76652063616c6c6572206973206e6f74206f7760448201527f6e6572206e6f7220617070726f76656420666f7220616c6c000000000000000060648201526084016104c9565b6105ff8383611038565b505050565b6060600061061160075490565b9050600061061e60085490565b60075461062b9190611f45565b90506000808267ffffffffffffffff81111561065757634e487b7160e01b600052604160045260246000fd5b6040519080825280602002602001820160405280156106b057816020015b6040805160a0810182526000808252602080830182905292820181905260608201819052608082015282526000199092019101816106755790505b50905060005b848110156107af5730600a60006106ce846001611f19565b81526020810191909152604001600020600201546001600160a01b0316141561079d5760006106fe826001611f19565b6000818152600a6020908152604091829020825160a0810184528154815260018201546001600160a01b039081169382019390935260028201549092169282019290925260038201546060820152600482015460ff16151560808201528551929350909185908790811061078257634e487b7160e01b600052603260045260246000fd5b6020908102919091010152610798600186611f19565b945050505b806107a781611fc3565b9150506106b6565b50949350505050565b6107c233826110a6565b6107de5760405162461bcd60e51b81526004016104c990611ec8565b6105ff83838361118c565b6105ff83838360405180602001604052806000815250610b54565b6060600061081160075490565b905060008060005b838110156108745733600a6000610831846001611f19565b81526020810191909152604001600020600101546001600160a01b031614156108625761085f600184611f19565b92505b8061086c81611fc3565b915050610819565b5060008267ffffffffffffffff81111561089e57634e487b7160e01b600052604160045260246000fd5b6040519080825280602002602001820160405280156108f757816020015b6040805160a0810182526000808252602080830182905292820181905260608201819052608082015282526000199092019101816108bc5790505b50905060005b848110156107af5733600a6000610915846001611f19565b81526020810191909152604001600020600101546001600160a01b031614156109e4576000610945826001611f19565b6000818152600a6020908152604091829020825160a0810184528154815260018201546001600160a01b039081169382019390935260028201549092169282019290925260038201546060820152600482015460ff1615156080820152855192935090918590879081106109c957634e487b7160e01b600052603260045260246000fd5b60209081029190910101526109df600186611f19565b945050505b806109ee81611fc3565b9150506108fd565b6000818152600260205260408120546001600160a01b0316806103c95760405162461bcd60e51b815260206004820152602960248201527f4552433732313a206f776e657220717565727920666f72206e6f6e657869737460448201526832b73a103a37b5b2b760b91b60648201526084016104c9565b60006001600160a01b038216610ad85760405162461bcd60e51b815260206004820152602a60248201527f4552433732313a2062616c616e636520717565727920666f7220746865207a65604482015269726f206164647265737360b01b60648201526084016104c9565b506001600160a01b031660009081526003602052604090205490565b6000610b04600780546001019055565b6000610b0f60075490565b9050610b1b3382611328565b610b25818561145b565b610b2f81846114e6565b9392505050565b6060600180546103de90611f88565b610b5033838361161b565b5050565b610b5e33836110a6565b610b7a5760405162461bcd60e51b81526004016104c990611ec8565b610b86848484846116ea565b50505050565b60606000610b9960075490565b905060008060005b83811015610bfc5733600a6000610bb9846001611f19565b81526020810191909152604001600020600201546001600160a01b03161415610bea57610be7600184611f19565b92505b80610bf481611fc3565b915050610ba1565b5060008267ffffffffffffffff811115610c2657634e487b7160e01b600052604160045260246000fd5b604051908082528060200260200182016040528015610c7f57816020015b6040805160a081018252600080825260208083018290529282018190526060820181905260808201528252600019909201910181610c445790505b50905060005b848110156107af5733600a6000610c9d846001611f19565b81526020810191909152604001600020600201546001600160a01b03161415610d6c576000610ccd826001611f19565b6000818152600a6020908152604091829020825160a0810184528154815260018201546001600160a01b039081169382019390935260028201549092169282019290925260038201546060820152600482015460ff161515608082015285519293509091859087908110610d5157634e487b7160e01b600052603260045260246000fd5b6020908102919091010152610d67600186611f19565b945050505b80610d7681611fc3565b915050610c85565b6060610d898261101b565b610def5760405162461bcd60e51b815260206004820152603160248201527f45524337323155524953746f726167653a2055524920717565727920666f72206044820152703737b732bc34b9ba32b73a103a37b5b2b760791b60648201526084016104c9565b60008281526006602052604081208054610e0890611f88565b80601f0160208091040260200160405190810160405280929190818152602001828054610e3490611f88565b8015610e815780601f10610e5657610100808354040283529160200191610e81565b820191906000526020600020905b815481529060010190602001808311610e6457829003601f168201915b505050505090506000610e9f60408051602081019091526000815290565b9050805160001415610eb2575092915050565b815115610ee4578082604051602001610ecc929190611d7b565b60405160208183030381529060405292505050919050565b610eed8461171d565b949350505050565b6000818152600a6020526040902060038101546001909101546001600160a01b0316348214610f8c5760405162461bcd60e51b815260206004820152603c60248201527f506c65617365207375626d6974207468652061736b696e67207072696365206960448201527f6e206f7264657220746f20636f6d706c657465207468652072656e740000000060648201526084016104c9565b6000838152600a602052604090206002810180546001600160a01b0319908116331790915560048201805460ff1916600190811790915590910180549091169055610fdb600880546001019055565b610fe630338561118c565b6040516001600160a01b038216903480156108fc02916000818181858888f19350505050158015610b86573d6000803e3d6000fd5b6000908152600260205260409020546001600160a01b0316151590565b600081815260046020526040902080546001600160a01b0319166001600160a01b038416908117909155819061106d826109f6565b6001600160a01b03167f8c5be1e5ebec7d5bd14f71427d1e84f3dd0314c0f7b2291e5b200ac8c7c3b92560405160405180910390a45050565b60006110b18261101b565b6111125760405162461bcd60e51b815260206004820152602c60248201527f4552433732313a206f70657261746f7220717565727920666f72206e6f6e657860448201526b34b9ba32b73a103a37b5b2b760a11b60648201526084016104c9565b600061111d836109f6565b9050806001600160a01b0316846001600160a01b031614806111585750836001600160a01b031661114d84610461565b6001600160a01b0316145b80610eed57506001600160a01b0380821660009081526005602090815260408083209388168352929052205460ff16610eed565b826001600160a01b031661119f826109f6565b6001600160a01b0316146112035760405162461bcd60e51b815260206004820152602560248201527f4552433732313a207472616e736665722066726f6d20696e636f72726563742060448201526437bbb732b960d91b60648201526084016104c9565b6001600160a01b0382166112655760405162461bcd60e51b8152602060048201526024808201527f4552433732313a207472616e7366657220746f20746865207a65726f206164646044820152637265737360e01b60648201526084016104c9565b611270600082611038565b6001600160a01b0383166000908152600360205260408120805460019290611299908490611f45565b90915550506001600160a01b03821660009081526003602052604081208054600192906112c7908490611f19565b909155505060008181526002602052604080822080546001600160a01b0319166001600160a01b0386811691821790925591518493918716917fddf252ad1be2c89b69c2b068fc378daa952ba7f163c4a11628f55a4df523b3ef91a4505050565b6001600160a01b03821661137e5760405162461bcd60e51b815260206004820181905260248201527f4552433732313a206d696e7420746f20746865207a65726f206164647265737360448201526064016104c9565b6113878161101b565b156113d45760405162461bcd60e51b815260206004820152601c60248201527f4552433732313a20746f6b656e20616c7265616479206d696e7465640000000060448201526064016104c9565b6001600160a01b03821660009081526003602052604081208054600192906113fd908490611f19565b909155505060008181526002602052604080822080546001600160a01b0319166001600160a01b03861690811790915590518392907fddf252ad1be2c89b69c2b068fc378daa952ba7f163c4a11628f55a4df523b3ef908290a45050565b6114648261101b565b6114c75760405162461bcd60e51b815260206004820152602e60248201527f45524337323155524953746f726167653a2055524920736574206f66206e6f6e60448201526d32bc34b9ba32b73a103a37b5b2b760911b60648201526084016104c9565b600082815260066020908152604090912082516105ff92840190611a1b565b600081116115365760405162461bcd60e51b815260206004820152601c60248201527f5072696365206d757374206265206174206c656173742031207765690000000060448201526064016104c9565b6040805160a08101825283815233602080830182815230848601818152606086018881526000608088018181528b8252600a909652979097209551865591516001860180546001600160a01b03199081166001600160a01b0393841617909155925160028701805490941691161790915593516003840155516004909201805460ff1916921515929092179091556115ce918461118c565b604080513381523060208201529081018290526000606082015282907fb640004f1d14576d0c209e240cad0410e0d8c0c33a09375861fbadae2588a98d9060800160405180910390a25050565b816001600160a01b0316836001600160a01b0316141561167d5760405162461bcd60e51b815260206004820152601960248201527f4552433732313a20617070726f766520746f2063616c6c65720000000000000060448201526064016104c9565b6001600160a01b03838116600081815260056020908152604080832094871680845294825291829020805460ff191686151590811790915591519182527f17307eab39ab6107e8899845ad3d59bd9653f200f220920489ca2b5937696c31910160405180910390a3505050565b6116f584848461118c565b611701848484846117f4565b610b865760405162461bcd60e51b81526004016104c990611e76565b60606117288261101b565b61178c5760405162461bcd60e51b815260206004820152602f60248201527f4552433732314d657461646174613a2055524920717565727920666f72206e6f60448201526e3732bc34b9ba32b73a103a37b5b2b760891b60648201526084016104c9565b60006117a360408051602081019091526000815290565b905060008151116117c35760405180602001604052806000815250610b2f565b806117cd84611901565b6040516020016117de929190611d7b565b6040516020818303038152906040529392505050565b60006001600160a01b0384163b156118f657604051630a85bd0160e11b81526001600160a01b0385169063150b7a0290611838903390899088908890600401611daa565b602060405180830381600087803b15801561185257600080fd5b505af1925050508015611882575060408051601f3d908101601f1916820190925261187f91810190611cc5565b60015b6118dc573d8080156118b0576040519150601f19603f3d011682016040523d82523d6000602084013e6118b5565b606091505b5080516118d45760405162461bcd60e51b81526004016104c990611e76565b805181602001fd5b6001600160e01b031916630a85bd0160e11b149050610eed565b506001949350505050565b6060816119255750506040805180820190915260018152600360fc1b602082015290565b8160005b811561194f578061193981611fc3565b91506119489050600a83611f31565b9150611929565b60008167ffffffffffffffff81111561197857634e487b7160e01b600052604160045260246000fd5b6040519080825280601f01601f1916602001820160405280156119a2576020820181803683370190505b5090505b8415610eed576119b7600183611f45565b91506119c4600a86611fde565b6119cf906030611f19565b60f81b8183815181106119f257634e487b7160e01b600052603260045260246000fd5b60200101906001600160f81b031916908160001a905350611a14600a86611f31565b94506119a6565b828054611a2790611f88565b90600052602060002090601f016020900481019282611a495760008555611a8f565b82601f10611a6257805160ff1916838001178555611a8f565b82800160010185558215611a8f579182015b82811115611a8f578251825591602001919060010190611a74565b50611a9b929150611a9f565b5090565b5b80821115611a9b5760008155600101611aa0565b600067ffffffffffffffff80841115611acf57611acf61201e565b604051601f8501601f19908116603f01168101908282118183101715611af757611af761201e565b81604052809350858152868686011115611b1057600080fd5b858560208301376000602087830101525050509392505050565b80356001600160a01b0381168114611b4157600080fd5b919050565b600060208284031215611b57578081fd5b610b2f82611b2a565b60008060408385031215611b72578081fd5b611b7b83611b2a565b9150611b8960208401611b2a565b90509250929050565b600080600060608486031215611ba6578081fd5b611baf84611b2a565b9250611bbd60208501611b2a565b9150604084013590509250925092565b60008060008060808587031215611be2578081fd5b611beb85611b2a565b9350611bf960208601611b2a565b925060408501359150606085013567ffffffffffffffff811115611c1b578182fd5b8501601f81018713611c2b578182fd5b611c3a87823560208401611ab4565b91505092959194509250565b60008060408385031215611c58578182fd5b611c6183611b2a565b915060208301358015158114611c75578182fd5b809150509250929050565b60008060408385031215611c92578182fd5b611c9b83611b2a565b946020939093013593505050565b600060208284031215611cba578081fd5b8135610b2f81612034565b600060208284031215611cd6578081fd5b8151610b2f81612034565b60008060408385031215611cf3578182fd5b823567ffffffffffffffff811115611d09578283fd5b8301601f81018513611d19578283fd5b611d2885823560208401611ab4565b95602094909401359450505050565b600060208284031215611d48578081fd5b5035919050565b60008151808452611d67816020860160208601611f5c565b601f01601f19169290920160200192915050565b60008351611d8d818460208801611f5c565b835190830190611da1818360208801611f5c565b01949350505050565b6001600160a01b0385811682528416602082015260408101839052608060608201819052600090611ddd90830184611d4f565b9695505050505050565b602080825282518282018190526000919060409081850190868401855b82811015611e5657815180518552868101516001600160a01b03908116888701528682015116868601526060808201519086015260809081015115159085015260a09093019290850190600101611e04565b5091979650505050505050565b602081526000610b2f6020830184611d4f565b60208082526032908201527f4552433732313a207472616e7366657220746f206e6f6e20455243373231526560408201527131b2b4bb32b91034b6b83632b6b2b73a32b960711b606082015260800190565b60208082526031908201527f4552433732313a207472616e736665722063616c6c6572206973206e6f74206f6040820152701ddb995c881b9bdc88185c1c1c9bdd9959607a1b606082015260800190565b60008219821115611f2c57611f2c611ff2565b500190565b600082611f4057611f40612008565b500490565b600082821015611f5757611f57611ff2565b500390565b60005b83811015611f77578181015183820152602001611f5f565b83811115610b865750506000910152565b600181811c90821680611f9c57607f821691505b60208210811415611fbd57634e487b7160e01b600052602260045260246000fd5b50919050565b6000600019821415611fd757611fd7611ff2565b5060010190565b600082611fed57611fed612008565b500690565b634e487b7160e01b600052601160045260246000fd5b634e487b7160e01b600052601260045260246000fd5b634e487b7160e01b600052604160045260246000fd5b6001600160e01b03198116811461204a57600080fd5b5056fea26469706673582212202ed64e5e2b0f60f5e9e6612b80cc5dc202ecc6343582efdc460bb8ffa92c0f6564736f6c63430008040033",
  "linkReferences": {},
  "deployedLinkReferences": {}
}